:03000000020040BB
:0300130002006583
:10004000D2AFD2AAC2BAD2B379FF7AFF7BFF907F38
:10005000F8F0758160759850758920758DFD758BE8
:10006000FDD28E80FE7590FFE0F530F5993099FD58
:10007000C299E53075F00A84C0F075F00A84C0F0CA
:1000800075F00A84E5F0B4000479C0803AB4010444
:1000900079CF8033B4020479A4802CB4030479B0FE
:1000A0008025B404047999801EB4050479928017E0
:1000B000B4060479828010B4070479F88009B40882
:1000C00004798080027990D0F0E5F0B400047AC021
:1000D000803AB401047ACF8033B402047AA4802C2D
:1000E000B403047AB08025B404047A99801EB40560
:1000F000047A928017B406047A828010B407047AD6
:10010000F88009B408047A8080027A90D0F0E5F093
:10011000B400047B40803AB401047B4F8033B402C6
:10012000047B24802CB403047B308025B404047B3E
:1001300019801EB405047B128017B406047B02806C
:1001400010B407047B788009B408047B0080027B2C
:1001500010781975A00189907590FF75A0028A909A
:100160007590FF75A0048B907590FF75A008759031
:08017000C07590FFD8DDF032EC
:00000001FF
